{
  "contractName": "Conference",
  "abi": [
    {
      "constant": true,
      "inputs": [
        {
          "name": "",
          "type": "address"
        }
      ],
      "name": "registrantsPaid",
      "outputs": [
        {
          "name": "",
          "type": "uint256"
        }
      ],
      "payable": false,
      "stateMutability": "view",
      "type": "function"
    },
    {
      "constant": true,
      "inputs": [],
      "name": "organizer",
      "outputs": [
        {
          "name": "",
          "type": "address"
        }
      ],
      "payable": false,
      "stateMutability": "view",
      "type": "function"
    },
    {
      "constant": true,
      "inputs": [],
      "name": "quota",
      "outputs": [
        {
          "name": "",
          "type": "uint256"
        }
      ],
      "payable": false,
      "stateMutability": "view",
      "type": "function"
    },
    {
      "constant": true,
      "inputs": [],
      "name": "numRegistrants",
      "outputs": [
        {
          "name": "",
          "type": "uint256"
        }
      ],
      "payable": false,
      "stateMutability": "view",
      "type": "function"
    },
    {
      "inputs": [],
      "payable": false,
      "stateMutability": "nonpayable",
      "type": "constructor"
    },
    {
      "anonymous": false,
      "inputs": [
        {
          "indexed": false,
          "name": "_from",
          "type": "address"
        },
        {
          "indexed": false,
          "name": "_amount",
          "type": "uint256"
        }
      ],
      "name": "Deposit",
      "type": "event"
    },
    {
      "anonymous": false,
      "inputs": [
        {
          "indexed": false,
          "name": "_to",
          "type": "address"
        },
        {
          "indexed": false,
          "name": "_amount",
          "type": "uint256"
        }
      ],
      "name": "Refund",
      "type": "event"
    },
    {
      "constant": false,
      "inputs": [],
      "name": "buyTicket",
      "outputs": [],
      "payable": true,
      "stateMutability": "payable",
      "type": "function"
    }
  ],
  "bytecode": "0x608060405234801561001057600080fd5b50336000806101000a81548173ffffffffffffffffffffffffffffffffffffffff021916908373ffffffffffffffffffffffffffffffffffffffff16021790555060646003819055506000600281905550610329806100706000396000f3fe60806040526004361061004a5760003560e01c806313381fbf1461004f57806361203265146100b4578063cebe09c91461010b578063ec3a6f7314610136578063edca914c14610161575b600080fd5b34801561005b57600080fd5b5061009e6004803603602081101561007257600080fd5b81019080803573ffffffffffffffffffffffffffffffffffffffff16906020019092919050505061016b565b6040518082815260200191505060405180910390f35b3480156100c057600080fd5b506100c9610183565b604051808273ffffffffffffffffffffffffffffffffffffffff1673ffffffffffffffffffffffffffffffffffffffff16815260200191505060405180910390f35b34801561011757600080fd5b506101206101a8565b6040518082815260200191505060405180910390f35b34801561014257600080fd5b5061014b6101ae565b6040518082815260200191505060405180910390f35b6101696101b4565b005b60016020528060005260406000206000915090505481565b6000809054906101000a900473ffffffffffffffffffffffffffffffffffffffff1681565b60035481565b60025481565b6003546002541015610211576040517f08c379a00000000000000000000000000000000000000000000000000000000081526004018080602001828103825260298152602001806102d56029913960400191505060405180910390fd5b34600160003373ffffffffffffffffffffffffffffffffffffffff1673ffffffffffffffffffffffffffffffffffffffff168152602001908152602001600020819055506002600081548092919060010191905055507fe1fffcc4923d04b559f4d29a8bfc6cda04eb5b0d3c460751c2402c5c5cc9109c3334604051808373ffffffffffffffffffffffffffffffffffffffff1673ffffffffffffffffffffffffffffffffffffffff1681526020018281526020019250505060405180910390a156fe4e756d626572206f662072656769737472616e7473206973206c6f776572207468616e2071756f7461a165627a7a72305820ad090c1538b3e61ee2539b5e0b84f982839f74609da2d60f4fa104c9c558d8c80029",
  "source": "pragma solidity ^0.5.8;\n\ncontract Conference {\n\n \taddress public organizer;\n \tmapping (address => uint) public registrantsPaid;\n \tuint public numRegistrants;\n \tuint public quota;\n\n  \tevent Deposit(address _from, uint _amount);\n \tevent Refund(address _to, uint _amount);\n\n \t constructor() public {\n\n \t\torganizer = msg.sender;\n \t\tquota = 100;\n \t\tnumRegistrants = 0;\n \t}\n\n \tfunction buyTicket() public payable{\n \t\trequire(numRegistrants >= quota, \"Number of registrants is lower than quota\");\n \t\tregistrantsPaid[msg.sender] = msg.value;\n \t\tnumRegistrants++;\n \t\temit Deposit(msg.sender, msg.value);\n \t}\n\n}\n",
  "sourcePath": "/Users/bryanpyx/Desktop/Bryan/Tutorials/blockchain-tutorial/ticketing-service/ethereum_demo/contracts/Conference.sol",
  "compiler": {
    "name": "solc",
    "version": "0.5.8+commit.23d335f2.Emscripten.clang"
  },
  "schemaVersion": "3.0.10",
  "updatedAt": "2019-06-17T09:26:12.798Z",
  "devdoc": {
    "methods": {}
  },
  "userdoc": {
    "methods": {}
  }
}